:020000040800F2
:100000009810002045010008C10A0008650A000890
:10001000690A00080908000899110008000000009A
:10002000000000000000000000000000E10C0008DB
:100030000D08000800000000C90B0008170E00089A
:100040005F0100085F0100085F0100085F01000810
:100050005F0100085F0100085F0100085F01000800
:100060005F0100085F0100085F0100085F010008F0
:100070005F0100085F0100085F0100085F010008E0
:100080005F0100085F0100085F0100085F010008D0
:100090005F0100085F0100085F0100085F010008C0
:1000A0005F0100085F0100085F0100085F010008B0
:1000B0005F010008790E00085F0100085F01000879
:1000C0005F0100085F0100085F0100085F01000890
:1000D0005F0100085F0100085F0100085F01000880
:1000E0005F0100085F0100085F0100085F01000870
:1000F0005F0100085F0100085F0100085F01000860
:100100005F0100085F0100085F0100085F0100084F
:100110005F0100085F0100085F0100085F0100083F
:100120005F0100085F0100085F0100085F0100082F
:10013000DFF80CD000F0A0F9004800479912000841
:10014000981000200648804706480047FEE7FEE773
:10015000FEE7FEE7FEE7FEE7FEE7FEE7FEE7FEE777
:10016000190E0008310100082DE9FE4F81EA030451
:1001700004F0004421F0004100944FF0000B23F004
:10018000004350EA01045ED052EA03045BD0C3F39B
:100190000A54C1F30A552C44A4F2F3340194A0FB91
:1001A0000254C1F3130141F48011C3F3130343F468
:1001B000801301FB024400FB034E840A970A44EAC1
:1001C000815447EA8357A4FB076802958D0A05FB13
:1001D00007854FEA932C04FB0C542705029D4FEA38
:1001E000065847EA1637B5EB08056EEB070C870E85
:1001F000920E47EA811742EA8312A7FB0201B6EB8F
:100200000B0164EB00042B0D43EA0C335E1844EB46
:100210001C50DA465146E7FB0201C5F313044FEACE
:100220000B3343EA14534FEA0432019C43EA0603BA
:10023000A4F10C040294009CCDE900B400F0CEF8C7
:1002400003B0BDE8F08F00200146F9E7C10F80EA56
:10025000E0700844CA079623002100F082B80EB56A
:1002600040F2334102910021CDE900110A460B46CC
:1002700000F0B4F803B000BDC1F30A5210B5C1F3E9
:10028000130140F2FF3341F480119A4201DA002059
:1002900010BD40F233439A42A2F2334203DC524291
:1002A00000F046F810BD904010BD00F0004230F064
:1002B00000400AD0C10D01F56071C0F3160042EA9A
:1002C0000151C208400711437047002001467047A2
:1002D00001F0004330B421F0004150EA010206D0A1
:1002E0000A0DA2F56072C1F31301002A02DC30BCD2
:1002F00000207047440F44EAC104C100E01830BC3C
:1003000000EBC25000F024B8002801DBC0F100402F
:10031000002901DBC1F1004181427047002801DB67
:10032000C0F10040002901DBC1F100418842704763
:10033000202A04DB203A21FA02F00021704721FA3A
:1003400002F3D040C2F120029140084319467047A1
:100350000029A8BF7047401C490008BF20F00100D9
:10036000704710B4B0FA80FC00FA0CF050EA0104B7
:1003700004BF10BC704749B1CCF1200421FA04F449
:1003800011FA0CF118BF012121430843A3EB0C0122
:10039000CB1D4FEA00614FEA102042BF002010BC85
:1003A000704700EBC35010440029A4BF10BC704735
:1003B000401C490008BF20F0010010BC704710B578
:1003C000141E73F1000408DA401C41F10001921878
:1003D0005B411A4301D120F0010010BD2DE9F04D21
:1003E00092469B4611B1B1FA81F202E0B0FA80F276
:1003F0002032904600F052F804460F4640EA0A00C8
:1004000041EA0B0153465A46084313D0114653EABA
:10041000010019D0C8F140025046FFF789FF054698
:100420000E4650465946424600F038F8084305D07B
:10043000012004E020463946BDE8F08D0020054348
:1004400046EAE0762C4337430A986305E40AA0EBBA
:1004500008000022FD0A44EA47540A3002D5002071
:100460000146E9E7010510196941DDE90845001970
:100470006941BDE8F04DA2E7064C074D06E0E06893
:1004800040F0010394E8070098471034AC42F6D3DB
:10049000FFF752FECC120008EC120008202A04DB01
:1004A000203A00FA02F1002070479140C2F1200387
:1004B00020FA03F319439040704710B50B21312007
:1004C00000F084FC08212C2000F080FC08212D2065
:1004D00000F07CFC80212E2000F078FC00211E2002
:1004E00000F074FC00211F2000F070FC052120208A
:1004F00000F06CFC10BD00002DE9F04700F0B6FAEA
:10050000234800782249497800EB01242046FFF770
:100510009DFE8146FFF7C9FE07464FF033321D4B63
:10052000FFF722FE0546FFF7D3FE1B490860184877
:1005300080781749C97800EB01242046FFF786FE32
:100540008146FFF7B2FE07464FF03332114BFFF7FB
:100550000BFE0546FFF7BCFE0F4948600C480079CA
:100560000B49497900EB01242046FFF76FFE8146D5
:10057000FFF79BFE07464FF03332064BFFF7F4FDC3
:100580000546FFF7A5FE04498860BDE8F087000036
:100590002C00002033330F403C00002008B5202001
:1005A000ADF8000010208DF8030003208DF8020044
:1005B0006946024800F06FF908BD000000080140DC
:1005C00008B51020ADF8000048208DF80300032086
:1005D0008DF802006946024800F05DF908BD000090
:1005E0000008014008B51020ADF800008DF80300A8
:1005F00003208DF802006946014800F04CF908BD5F
:100600000008014070B5044600F0C2F8A62000F0D2
:100610008FF8E0B200F08CF800F0BAF8A72000F0F4
:1006200087F800F037F80546012000F05FF800F089
:10063000CDF8284670BD000010B51021134800F019
:10064000BEF9FFF7ABFF2021104800F0BAF90220F5
:1006500000F0FCFD20210D4800F0B3F910210B48FB
:1006600000F0A4F9012802D10949087002E0002035
:10067000074908702021054800F0A1F9052000F085
:10068000E5FDFFF7AFFF0248007810BD000801400C
:100690003400002070B50024FFF792FFFFF77EFFC3
:1006A00000251DE06006040E052000F0CFFD20218E
:1006B0000D4800F086F910210B4800F077F9012869
:1006C00001D1012600E000260EB1601CC4B2052055
:1006D00000F0BCFD2021044800F071F9681CC5B28F
:1006E000082DDFDB204670BD0008014010B5044630
:1006F000FFF766FFFFF776FF24B910210B4800F0E3
:100700005EF903E01021094800F05BF92021074859
:1007100000F057F9022000F099FD2021034800F075
:100720004EF9052000F092FD10BD000000080140C8
:1007300070B50446FFF732FFFFF754FF002520E0B5
:10074000052000F083FD04F0800020B110210F4847
:1007500000F037F903E010210C4800F030F90520D3
:1007600000F074FD2021094800F02BF9052000F06D
:100770006DFD2021054800F022F96006040E681C7A
:10078000C5B2082DDCDBFFF757FF70BD0008014044
:1007900010B5FFF703FFFFF725FF10210A4800F00F
:1007A00010F92021084800F00CF9022000F04EFD5D
:1007B0001021054800F003F9022000F047FD202138
:1007C000014800F0FCF810BD0008014010B5FFF72B
:1007D000E5FEFFF707FF10210A4800F0F0F820219E
:1007E000084800F0EEF8022000F030FD1021054826
:1007F00000F0E7F8022000F029FD2021014800F078
:10080000DEF810BD0008014000BFFEE7704710B5DC
:1008100000F02CF800F002F810BD00000EB5012128
:10082000022000F0D3F942F20F70ADF80400472027
:10083000ADF800000020ADF80600ADF802008DF81C
:1008400008006946084800F06FFB0121064800F0E7
:100850003FFB01221146044800F05DFB01210248E4
:1008600000F03CFB0EBD00000004004008B54FF452
:10087000E06000F071F91D208DF8000000208DF877
:10088000010003208DF8020001208DF80300684666
:1008900000F02AF908BD2DE9F041024600250026A6
:1008A000002000230024002791F803C00CF00F055E
:1008B00091F803C00CF0100CBCF1000F03D091F8BC
:1008C00002C04CEA050591F800C0BCF1000F31D020
:1008D000146800202BE04FF0010C0CFA00F3B1F883
:1008E00000C00CEA03069E4220D183004FF00F0C9B
:1008F0000CFA03F7BC4305FA03FC4CEA040491F834
:1009000003C0BCF1280F06D14FF0010C0CFA00FC1B
:10091000C2F814C00AE091F803C0BCF1480F05D139
:100920004FF0010C0CFA00FCC2F810C0401C082863
:10093000D1D31460B1F800C0BCF1FF0F34DD5468AE
:1009400000202EE000F1080C4FF0010808FA0CF32B
:10095000B1F800C00CEA03069E4221D183004FF09B
:100960000F0C0CFA03F7BC4305FA03FC4CEA040431
:1009700091F803C0BCF1280F05D100F1080C08FA6A
:100980000CF8C2F8148091F803C0BCF1480F07D1ED
:1009900000F1080C4FF0010808FA0CF8C2F81080BA
:1009A000401C0828CED35460BDE8F08102460020E8
:1009B00093680B400BB1012000E0002070474161BB
:1009C00070470161704700002DE9F0411F4890F821
:1009D000410001282AD100201C4981F84100FFF77D
:1009E0008BFD1B4908681B49FFF798FC05D3184984
:1009F00008681949FFF788FC05D214480088401C94
:100A00001249088004E011484088401C0F49488082
:100A10000E48408850B10D48008838B10B48406AF4
:100A2000401C0A4948620020488008800749486AFB
:100A3000FFF715FC0646094A094BFFF795FB0446EC
:100A4000FFF71AFC0149C862BDE8F081540000209C
:100A50003C00002000001644008009C4CDCCCCCC62
:100A6000CCCC154000BFFEE700BFFEE710B5FFF796
:100A70008FFEA620FFF75CFE3220FFF759FEFFF73E
:100A800087FEA720FFF754FE00240EE0FFF702FECA
:100A90000A490855052C03D10120FFF727FE02E083
:100AA0000020FFF723FE601C84B2062CEEDBFFF76C
:100AB0008DFE052000F0A4FB10BD00002C000020DE
:100AC000704708B54FF4A06000F046F825208DF877
:100AD000000001208DF801008DF802008DF8030060
:100AE000684600F001F808BD70B5002100230F2210
:100AF000C47804B3154C246804F4E064C4F5E064DD
:100B0000210AC1F10403CA40447804FA03F184784D
:100B10001440214309010E4C0678A155047804F0D5
:100B20001F050124AC4005786D11AD0005F1E025ED
:100B3000C5F8004109E0047804F01F050124AC4029
:100B4000044D0678761145F8264070BD0CED00E0A6
:100B500000E400E080E100E002490143024A116044
:100B6000704700000000FA050CED00E00020144979
:100B700088634883087648600862C8618862486272
:100B8000C86281F8300048864FF07C5088630020AE
:100B900081F8410001200B490870052048700A20A7
:100BA00088701420C8703220087164204871C820F1
:100BB00088714FF4FA70088142F2107048817047D2
:100BC00054000020480000207047000029B1064A68
:100BD000D2690243044BDA6104E0034AD2698243DA
:100BE000014BDA61704700000010024029B1064A4B
:100BF00092690243044B9A6104E0034A926982437A
:100C0000014B9A61704700000010024030B500218E
:100C10000022002400232D4D6D6805F00C0121B148
:100C2000042905D0082923D105E0294D056022E0DB
:100C3000274D05601FE0254D6D6805F47012234DAA
:100C40006D6805F48034022505EB92421CB9214DF4
:100C5000554305600BE01D4D6D6805F400351DB171
:100C60001C4D5543056002E0194D5543056002E0F7
:100C7000174D056000BF00BF144D6D6805F0F00111
:100C80000909154D6B5C0568DD4045600F4D6D68C9
:100C900005F4E061090A104D6B5C4568DD40856034
:100CA0000A4D6D6805F46051C90A0B4D6B5C4568CF
:100CB000DD40C560054D6D6805F44041890B074D69
:100CC0006B5CC568B5FBF3F5056130BD00100240F3
:100CD00000127A0000093D001400002024000020CA
:100CE000704710B500F002F810BD00000CB50020F0
:100CF000019000903348006840F48030314908602A
:100D000000BF3048006800F4003000900198401C9B
:100D10000190009818B90198B0F5A06FF1D1294859
:100D2000006800F4003010B10120009001E00020C4
:100D300000900098012843D12348006840F010003B
:100D4000214908600846006820F003000860084652
:100D5000006840F0020008601A484068194948607D
:100D60000846406848600846406840F48060486033
:100D70000846406820F47C1048600846406840F40B
:100D8000E81048600846006840F08070086000BFC6
:100D90000C48006800F000700028F9D0094840684D
:100DA00020F00300074948600846406840F0020010
:100DB000486000BF0348406800F00C000828F9D1E3
:100DC0000CBD0000001002400020024070B5044637
:100DD0000D46FFF7DDFCA620FFF7AAFCE0B2FFF707
:100DE000A7FC2846FFF7A4FCFFF7F0FC70BD042821
:100DF00008D14FF0E021096941F004014FF0E022F1
:100E0000116107E04FF0E021096921F004014FF082
:100E1000E02211617047704710B51348006840F038
:100E200001001149086008464068104908400E4911
:100E30004860084600680E4908400B4908600846AB
:100E4000006820F4802008600846406820F4FE0016
:100E500048604FF41F008860FFF743FF4FF00060C9
:100E60000449086010BD0000001002400000FFF8B7
:100E7000FFFFF6FE08ED00E010B50121104800F07C
:100E800039F840B101210E4800F025F80D480068FE
:100E9000401C0C4908600C4800780A490968B1FBFD
:100EA000F0F200FB121018B90120084981F8410046
:100EB00004480068401C10B900200249086010BDB9
:100EC00000040040280000204800002054000020BA
:100ED000CA4302827047CA430282704721B1028826
:100EE00042F00102028004E002884FF6FE731A40CD
:100EF0000280704730B50246002000230024158A86
:100F000005EA0103958905EA010413B10CB101203A
:100F100000E0002030BD1AB183890B43838102E0D9
:100F200083898B4383817047002202881D4B98423E
:100F30000ED01D4B98420BD0B0F1804F08D01B4B08
:100F4000984205D01A4B984202D01A4B984204D1CD
:100F50004FF68F731A404B881A43174B984207D0AD
:100F6000164B984204D04FF6FF431A40CB881A43E1
:100F700002808B8883850B8803850A4B98420BD0AF
:100F8000094B984208D00E4B984205D00D4B984221
:100F900002D00D4B984201D10B7A03860123838244
:100FA00070470000002C0140003401400004004064
:100FB00000080040000C00400010004000140040F9
:100FC00000400140004401400048014021B18289B5
:100FD00042F40052828104E082894DF6FF731A4088
:100FE0008281704700B585B001210420FFF7FEFD26
:100FF00001218803FFF7FAFD4FF40070ADF81000EF
:1010000018208DF8130003208DF8120004A917484A
:10101000FFF741FC4FF48060ADF8100004208DF81C
:10102000130004A91148FFF736FC4FF41650009046
:101030000020ADF80400ADF80600ADF80800ADF8EA
:101040000C000C20ADF80A006946094800F038F899
:10105000FFF737FD012240F22551054800F00AF85C
:1010600001210348FFF7B2FF05B000BD00080140B1
:1010700000380140F0B5034600240026002500207A
:1010800040F66A17B94200D100BF1846C1F34214B6
:1010900001F01F06012707FA06F5012C01D10C30DB
:1010A00004E0022C01D1103000E014301AB10768BE
:1010B0002F43076002E00768AF430760F0BD000000
:1010C0002DE9F04786B005460E460024A24600BF33
:1010D000A1460027B08900B100BF2F462C8A4CF6EC
:1010E000FF700440F08804432C82AC894EF6F31064
:1010F0000440B08831890843718908430443AC81B6
:10110000AC8A4FF6FF400440B0890443AC8201A88A
:10111000FFF77CFD1F48874202D1DDF810A001E0F7
:10112000DDF80CA0A88900F4004040B10AEBCA0029
:1011300000EB0A1031684900B0FBF1F807E00AEB58
:10114000CA0000EB0A1031688900B0FBF1F8642096
:10115000B8FBF0F004012009642101FB1089A88983
:1011600000F4004040B1322000EBC900B0FBF1F0C8
:1011700000F00700044308E0322000EB091064216E
:10118000B0FBF1F000F00F0004432C8106B0BDE885
:10119000F08700000038014000BFFEE702E008C809
:1011A000121F08C1002AFAD170477047002001E0E1
:1011B00001C1121F002AFBD17047000010B56FF06B
:1011C0000400FFF714FE0A4800680A49B0FBF1F07A
:1011D000094908700846007800EB4001C1EBC010D7
:1011E0004FF6FF7101EAC0000449088010BD0000FD
:1011F0000000002000127A00360000203800002095
:101200000146114A12884A434FF0E0235A610022F6
:101210009A611A46126942F001021A6100BF4FF04A
:10122000E022106900F001021AB100F48032002AB5
:10123000F5D04FF0E022126922F001024FF0E023D6
:101240001A6100229A617047380000200146114A55
:1012500012784A434FF0E0235A6100229A611A46FD
:10126000126942F001021A6100BF4FF0E0221069DA
:1012700000F001021AB100F48032002AF5D04FF0DC
:10128000E022126922F001024FF0E0231A610022ED
:101290009A61704736000020FFF790FFFFF7A2FE2B
:1012A000FFF70BF9FFF7B3FAFFF760FC0020FFF739
:1012B000A9F9E52803D10520FFF7A2FF02E00320EA
:1012C000FFF79EFF01E0FFF77FFBFCE7EC12000851
:1012D000000000203C0000009C11000828130008BA
:1012E0003C0000205C100000AC11000800A24A0481
:1012F00000000000000000000102030406070809C6
:1013000000000000010203040102030406070809AB
:1013100002040608000000000000000000000000B9
:081320000000000000000000C5
:0400000508000131BD
:00000001FF
